{
  "contractName": "SolnSquareVerifier",
  "abi": [
    {
      "inputs": [],
      "payable": false,
      "stateMutability": "nonpayable",
      "type": "constructor"
    },
    {
      "anonymous": false,
      "inputs": [
        {
          "indexed": true,
          "internalType": "address",
          "name": "owner",
          "type": "address"
        },
        {
          "indexed": true,
          "internalType": "address",
          "name": "approved",
          "type": "address"
        },
        {
          "indexed": true,
          "internalType": "uint256",
          "name": "tokenId",
          "type": "uint256"
        }
      ],
      "name": "Approval",
      "type": "event"
    },
    {
      "anonymous": false,
      "inputs": [
        {
          "indexed": true,
          "internalType": "address",
          "name": "owner",
          "type": "address"
        },
        {
          "indexed": true,
          "internalType": "address",
          "name": "operator",
          "type": "address"
        },
        {
          "indexed": false,
          "internalType": "bool",
          "name": "approved",
          "type": "bool"
        }
      ],
      "name": "ApprovalForAll",
      "type": "event"
    },
    {
      "anonymous": false,
      "inputs": [
        {
          "indexed": true,
          "internalType": "address",
          "name": "previousOwner",
          "type": "address"
        },
        {
          "indexed": true,
          "internalType": "address",
          "name": "newOwner",
          "type": "address"
        }
      ],
      "name": "OwnershipTransferred",
      "type": "event"
    },
    {
      "anonymous": false,
      "inputs": [
        {
          "indexed": true,
          "internalType": "address",
          "name": "account",
          "type": "address"
        }
      ],
      "name": "Paused",
      "type": "event"
    },
    {
      "anonymous": false,
      "inputs": [
        {
          "indexed": false,
          "internalType": "address",
          "name": "to",
          "type": "address"
        },
        {
          "indexed": false,
          "internalType": "uint256",
          "name": "index",
          "type": "uint256"
        }
      ],
      "name": "SolutionAdded",
      "type": "event"
    },
    {
      "anonymous": false,
      "inputs": [
        {
          "indexed": true,
          "internalType": "address",
          "name": "from",
          "type": "address"
        },
        {
          "indexed": true,
          "internalType": "address",
          "name": "to",
          "type": "address"
        },
        {
          "indexed": true,
          "internalType": "uint256",
          "name": "tokenId",
          "type": "uint256"
        }
      ],
      "name": "Transfer",
      "type": "event"
    },
    {
      "anonymous": false,
      "inputs": [
        {
          "indexed": true,
          "internalType": "address",
          "name": "account",
          "type": "address"
        }
      ],
      "name": "Unpaused",
      "type": "event"
    },
    {
      "constant": false,
      "inputs": [
        {
          "internalType": "bytes32",
          "name": "_myid",
          "type": "bytes32"
        },
        {
          "internalType": "string",
          "name": "_result",
          "type": "string"
        }
      ],
      "name": "__callback",
      "outputs": [],
      "payable": false,
      "stateMutability": "nonpayable",
      "type": "function"
    },
    {
      "constant": false,
      "inputs": [
        {
          "internalType": "bytes32",
          "name": "_myid",
          "type": "bytes32"
        },
        {
          "internalType": "string",
          "name": "_result",
          "type": "string"
        },
        {
          "internalType": "bytes",
          "name": "_proof",
          "type": "bytes"
        }
      ],
      "name": "__callback",
      "outputs": [],
      "payable": false,
      "stateMutability": "nonpayable",
      "type": "function"
    },
    {
      "constant": false,
      "inputs": [
        {
          "internalType": "address",
          "name": "to",
          "type": "address"
        },
        {
          "internalType": "uint256",
          "name": "tokenId",
          "type": "uint256"
        }
      ],
      "name": "approve",
      "outputs": [],
      "payable": false,
      "stateMutability": "nonpayable",
      "type": "function"
    },
    {
      "constant": true,
      "inputs": [
        {
          "internalType": "address",
          "name": "owner",
          "type": "address"
        }
      ],
      "name": "balanceOf",
      "outputs": [
        {
          "internalType": "uint256",
          "name": "",
          "type": "uint256"
        }
      ],
      "payable": false,
      "stateMutability": "view",
      "type": "function"
    },
    {
      "constant": true,
      "inputs": [],
      "name": "baseTokenURI",
      "outputs": [
        {
          "internalType": "string",
          "name": "",
          "type": "string"
        }
      ],
      "payable": false,
      "stateMutability": "view",
      "type": "function"
    },
    {
      "constant": true,
      "inputs": [
        {
          "internalType": "uint256",
          "name": "tokenId",
          "type": "uint256"
        }
      ],
      "name": "getApproved",
      "outputs": [
        {
          "internalType": "address",
          "name": "",
          "type": "address"
        }
      ],
      "payable": false,
      "stateMutability": "view",
      "type": "function"
    },
    {
      "constant": true,
      "inputs": [
        {
          "internalType": "address",
          "name": "owner",
          "type": "address"
        },
        {
          "internalType": "address",
          "name": "operator",
          "type": "address"
        }
      ],
      "name": "isApprovedForAll",
      "outputs": [
        {
          "internalType": "bool",
          "name": "",
          "type": "bool"
        }
      ],
      "payable": false,
      "stateMutability": "view",
      "type": "function"
    },
    {
      "constant": false,
      "inputs": [
        {
          "internalType": "address",
          "name": "to",
          "type": "address"
        },
        {
          "internalType": "uint256",
          "name": "tokenId",
          "type": "uint256"
        }
      ],
      "name": "mint",
      "outputs": [
        {
          "internalType": "bool",
          "name": "",
          "type": "bool"
        }
      ],
      "payable": false,
      "stateMutability": "nonpayable",
      "type": "function"
    },
    {
      "constant": true,
      "inputs": [],
      "name": "name",
      "outputs": [
        {
          "internalType": "string",
          "name": "",
          "type": "string"
        }
      ],
      "payable": false,
      "stateMutability": "view",
      "type": "function"
    },
    {
      "constant": true,
      "inputs": [],
      "name": "owner",
      "outputs": [
        {
          "internalType": "address",
          "name": "",
          "type": "address"
        }
      ],
      "payable": false,
      "stateMutability": "view",
      "type": "function"
    },
    {
      "constant": true,
      "inputs": [
        {
          "internalType": "uint256",
          "name": "tokenId",
          "type": "uint256"
        }
      ],
      "name": "ownerOf",
      "outputs": [
        {
          "internalType": "address",
          "name": "",
          "type": "address"
        }
      ],
      "payable": false,
      "stateMutability": "view",
      "type": "function"
    },
    {
      "constant": false,
      "inputs": [],
      "name": "pause",
      "outputs": [],
      "payable": false,
      "stateMutability": "nonpayable",
      "type": "function"
    },
    {
      "constant": false,
      "inputs": [
        {
          "internalType": "address",
          "name": "from",
          "type": "address"
        },
        {
          "internalType": "address",
          "name": "to",
          "type": "address"
        },
        {
          "internalType": "uint256",
          "name": "tokenId",
          "type": "uint256"
        }
      ],
      "name": "safeTransferFrom",
      "outputs": [],
      "payable": false,
      "stateMutability": "nonpayable",
      "type": "function"
    },
    {
      "constant": false,
      "inputs": [
        {
          "internalType": "address",
          "name": "from",
          "type": "address"
        },
        {
          "internalType": "address",
          "name": "to",
          "type": "address"
        },
        {
          "internalType": "uint256",
          "name": "tokenId",
          "type": "uint256"
        },
        {
          "internalType": "bytes",
          "name": "_data",
          "type": "bytes"
        }
      ],
      "name": "safeTransferFrom",
      "outputs": [],
      "payable": false,
      "stateMutability": "nonpayable",
      "type": "function"
    },
    {
      "constant": false,
      "inputs": [
        {
          "internalType": "address",
          "name": "to",
          "type": "address"
        },
        {
          "internalType": "bool",
          "name": "approved",
          "type": "bool"
        }
      ],
      "name": "setApprovalForAll",
      "outputs": [],
      "payable": false,
      "stateMutability": "nonpayable",
      "type": "function"
    },
    {
      "constant": true,
      "inputs": [
        {
          "internalType": "bytes4",
          "name": "interfaceId",
          "type": "bytes4"
        }
      ],
      "name": "supportsInterface",
      "outputs": [
        {
          "internalType": "bool",
          "name": "",
          "type": "bool"
        }
      ],
      "payable": false,
      "stateMutability": "view",
      "type": "function"
    },
    {
      "constant": true,
      "inputs": [],
      "name": "symbol",
      "outputs": [
        {
          "internalType": "string",
          "name": "",
          "type": "string"
        }
      ],
      "payable": false,
      "stateMutability": "view",
      "type": "function"
    },
    {
      "constant": true,
      "inputs": [
        {
          "internalType": "uint256",
          "name": "index",
          "type": "uint256"
        }
      ],
      "name": "tokenByIndex",
      "outputs": [
        {
          "internalType": "uint256",
          "name": "",
          "type": "uint256"
        }
      ],
      "payable": false,
      "stateMutability": "view",
      "type": "function"
    },
    {
      "constant": true,
      "inputs": [
        {
          "internalType": "address",
          "name": "owner",
          "type": "address"
        },
        {
          "internalType": "uint256",
          "name": "index",
          "type": "uint256"
        }
      ],
      "name": "tokenOfOwnerByIndex",
      "outputs": [
        {
          "internalType": "uint256",
          "name": "",
          "type": "uint256"
        }
      ],
      "payable": false,
      "stateMutability": "view",
      "type": "function"
    },
    {
      "constant": true,
      "inputs": [
        {
          "internalType": "uint256",
          "name": "tokenId",
          "type": "uint256"
        }
      ],
      "name": "tokenURI",
      "outputs": [
        {
          "internalType": "string",
          "name": "",
          "type": "string"
        }
      ],
      "payable": false,
      "stateMutability": "view",
      "type": "function"
    },
    {
      "constant": true,
      "inputs": [],
      "name": "totalSupply",
      "outputs": [
        {
          "internalType": "uint256",
          "name": "",
          "type": "uint256"
        }
      ],
      "payable": false,
      "stateMutability": "view",
      "type": "function"
    },
    {
      "constant": false,
      "inputs": [
        {
          "internalType": "address",
          "name": "from",
          "type": "address"
        },
        {
          "internalType": "address",
          "name": "to",
          "type": "address"
        },
        {
          "internalType": "uint256",
          "name": "tokenId",
          "type": "uint256"
        }
      ],
      "name": "transferFrom",
      "outputs": [],
      "payable": false,
      "stateMutability": "nonpayable",
      "type": "function"
    },
    {
      "constant": false,
      "inputs": [
        {
          "internalType": "address",
          "name": "newOwner",
          "type": "address"
        }
      ],
      "name": "transferOwnership",
      "outputs": [],
      "payable": false,
      "stateMutability": "nonpayable",
      "type": "function"
    },
    {
      "constant": true,
      "inputs": [
        {
          "internalType": "bytes32",
          "name": "",
          "type": "bytes32"
        }
      ],
      "name": "uniqueSolutions",
      "outputs": [
        {
          "internalType": "uint256",
          "name": "index",
          "type": "uint256"
        },
        {
          "internalType": "address",
          "name": "to",
          "type": "address"
        }
      ],
      "payable": false,
      "stateMutability": "view",
      "type": "function"
    },
    {
      "constant": true,
      "inputs": [],
      "name": "verifierContract",
      "outputs": [
        {
          "internalType": "contract SquareVerifier",
          "name": "",
          "type": "address"
        }
      ],
      "payable": false,
      "stateMutability": "view",
      "type": "function"
    },
    {
      "constant": false,
      "inputs": [
        {
          "internalType": "uint256[2]",
          "name": "a",
          "type": "uint256[2]"
        },
        {
          "internalType": "uint256[2][2]",
          "name": "b",
          "type": "uint256[2][2]"
        },
        {
          "internalType": "uint256[2]",
          "name": "c",
          "type": "uint256[2]"
        },
        {
          "internalType": "uint256[2]",
          "name": "input",
          "type": "uint256[2]"
        }
      ],
      "name": "addSolution",
      "outputs": [],
      "payable": false,
      "stateMutability": "nonpayable",
      "type": "function"
    },
    {
      "constant": false,
      "inputs": [
        {
          "internalType": "address",
          "name": "_to",
          "type": "address"
        },
        {
          "internalType": "uint256",
          "name": "_index",
          "type": "uint256"
        },
        {
          "internalType": "uint256[2]",
          "name": "a",
          "type": "uint256[2]"
        },
        {
          "internalType": "uint256[2][2]",
          "name": "b",
          "type": "uint256[2][2]"
        },
        {
          "internalType": "uint256[2]",
          "name": "c",
          "type": "uint256[2]"
        },
        {
          "internalType": "uint256[2]",
          "name": "input",
          "type": "uint256[2]"
        }
      ],
      "name": "mintToken",
      "outputs": [],
      "payable": false,
      "stateMutability": "nonpayable",
      "type": "function"
    }
  ],
  "bytecode": "0x608060405260006016553480156200001657600080fd5b506040518060400160405280600781526020017f4d4a546f6b656e000000000000000000000000000000000000000000000000008152506040518060400160405280600381526020017f4d4a5400000000000000000000000000000000000000000000000000000000008152506040518060600160405280603f8152602001620039e0603f913933600160006101000a81548173ffffffffffffffffffffffffffffffffffffffff021916908373ffffffffffffffffffffffffffffffffffffffff160217905550600160009054906101000a900473ffffffffffffffffffffffffffffffffffffffff1673ffffffffffffffffffffffffffffffffffffffff16600073ffffffffffffffffffffffffffffffffffffffff167f8be0079c531659141344cd1fd0a4f28419497f9722a3daafe3b4186f6b6457e060405160405180910390a36000600160146101000a81548160ff0219169083151502179055506200018e6301ffc9a760e01b620002ce60201b60201c565b620001a66380ac58cd60e01b620002ce60201b60201c565b620001be63780e9d6360e01b620002ce60201b60201c565b8260109080519060200190620001d69291906200036f565b508160119080519060200190620001ef9291906200036f565b508060129080519060200190620002089291906200036f565b5062000221635b5e139f60e01b620002ce60201b60201c565b50505033601560006101000a81548173ffffffffffffffffffffffffffffffffffffffff021916908373ffffffffffffffffffffffffffffffffffffffff160217905550601560009054906101000a900473ffffffffffffffffffffffffffffffffffffffff16601460006101000a81548173ffffffffffffffffffffffffffffffffffffffff021916908373ffffffffffffffffffffffffffffffffffffffff1602179055506200041e565b63ffffffff60e01b817bffffffffffffffffffffffffffffffffffffffffffffffffffffffff191614156200030257600080fd5b600160026000837bffffffffffffffffffffffffffffffffffffffffffffffffffffffff19167bffffffffffffffffffffffffffffffffffffffffffffffffffffffff1916815260200190815260200160002060006101000a81548160ff02191690831515021790555050565b828054600181600116156101000203166002900490600052602060002090601f016020900481019282601f10620003b257805160ff1916838001178555620003e3565b82800160010185558215620003e3579182015b82811115620003e2578251825591602001919060010190620003c5565b5b509050620003f29190620003f6565b5090565b6200041b91905b8082111562000417576000816000905550600101620003fd565b5090565b90565b6135b2806200042e6000396000f3fe608060405234801561001057600080fd5b50600436106101a95760003560e01c80636352211e116100f9578063c87b56dd11610097578063d547cfb711610071578063d547cfb714610d5a578063e985e9c514610ddd578063f2fde38b14610e59578063f76b443114610e9d576101a9565b8063c87b56dd14610ade578063ccd5835a14610b85578063cf69568814610d10576101a9565b80638da5cb5b116100d35780638da5cb5b146108bc57806395d89b4114610906578063a22cb46514610989578063b88d4fde146109d9576101a9565b80636352211e146107ec57806370a082311461085a5780638456cb59146108b2576101a9565b806327dc297e1161016657806340c10f191161014057806340c10f191461066157806342842e0e146106c75780634f6ccce7146107355780634fc35dfe14610777576101a9565b806327dc297e146103de5780632f745c59146104a357806338bbfa5014610505576101a9565b806301ffc9a7146101ae57806306fdde0314610213578063081812fc14610296578063095ea7b31461030457806318160ddd1461035257806323b872dd14610370575b600080fd5b6101f9600480360360208110156101c457600080fd5b8101908080357bffffffffffffffffffffffffffffffffffffffffffffffffffffffff19169060200190929190505050610ffe565b604051808215151515815260200191505060405180910390f35b61021b611066565b6040518080602001828103825283818151815260200191508051906020019080838360005b8381101561025b578082015181840152602081019050610240565b50505050905090810190601f1680156102885780820380516001836020036101000a031916815260200191505b509250505060405180910390f35b6102c2600480360360208110156102ac57600080fd5b8101908080359060200190929190505050611108565b604051808273ffffffffffffffffffffffffffffffffffffffff1673ffffffffffffffffffffffffffffffffffffffff16815260200191505060405180910390f35b6103506004803603604081101561031a57600080fd5b81019080803573ffffffffffffffffffffffffffffffffffffffff16906020019092919080359060200190929190505050611145565b005b61035a6112ef565b6040518082815260200191505060405180910390f35b6103dc6004803603606081101561038657600080fd5b81019080803573ffffffffffffffffffffffffffffffffffffffff169060200190929190803573ffffffffffffffffffffffffffffffffffffffff169060200190929190803590602001909291905050506112fc565b005b6104a1600480360360408110156103f457600080fd5b81019080803590602001909291908035906020019064010000000081111561041b57600080fd5b82018360208201111561042d57600080fd5b8035906020019184600183028401116401000000008311171561044f57600080fd5b91908080601f016020809104026020016040519081016040528093929190818152602001838380828437600081840152601f19601f82011690508083019250505050505050919291929050505061131f565b005b6104ef600480360360408110156104b957600080fd5b81019080803573ffffffffffffffffffffffffffffffffffffffff16906020019092919080359060200190929190505050611362565b6040518082815260200191505060405180910390f35b61065f6004803603606081101561051b57600080fd5b81019080803590602001909291908035906020019064010000000081111561054257600080fd5b82018360208201111561055457600080fd5b8035906020019184600183028401116401000000008311171561057657600080fd5b91908080601f016020809104026020016040519081016040528093929190818152602001838380828437600081840152601f19601f820116905080830192505050505050509192919290803590602001906401000000008111156105d957600080fd5b8201836020820111156105eb57600080fd5b8035906020019184600183028401116401000000008311171561060d57600080fd5b91908080601f016020809104026020016040519081016040528093929190818152602001838380828437600081840152601f19601f8201169050808301925050505050505091929192905050506113d5565b005b6106ad6004803603604081101561067757600080fd5b81019080803573ffffffffffffffffffffffffffffffffffffffff169060200190929190803590602001909291905050506113da565b604051808215151515815260200191505060405180910390f35b610733600480360360608110156106dd57600080fd5b81019080803573ffffffffffffffffffffffffffffffffffffffff169060200190929190803573ffffffffffffffffffffffffffffffffffffffff169060200190929190803590602001909291905050506114bc565b005b6107616004803603602081101561074b57600080fd5b81019080803590602001909291905050506114dc565b6040518082815260200191505060405180910390f35b6107a36004803603602081101561078d57600080fd5b8101908080359060200190929190505050611510565b604051808381526020018273ffffffffffffffffffffffffffffffffffffffff1673ffffffffffffffffffffffffffffffffffffffff1681526020019250505060405180910390f35b6108186004803603602081101561080257600080fd5b8101908080359060200190929190505050611554565b604051808273ffffffffffffffffffffffffffffffffffffffff1673ffffffffffffffffffffffffffffffffffffffff16815260200191505060405180910390f35b61089c6004803603602081101561087057600080fd5b81019080803573ffffffffffffffffffffffffffffffffffffffff169060200190929190505050611591565b6040518082815260200191505060405180910390f35b6108ba6115e1565b005b6108c4611703565b604051808273ffffffffffffffffffffffffffffffffffffffff1673ffffffffffffffffffffffffffffffffffffffff16815260200191505060405180910390f35b61090e61172d565b6040518080602001828103825283818151815260200191508051906020019080838360005b8381101561094e578082015181840152602081019050610933565b50505050905090810190601f16801561097b5780820380516001836020036101000a031916815260200191505b509250505060405180910390f35b6109d76004803603604081101561099f57600080fd5b81019080803573ffffffffffffffffffffffffffffffffffffffff1690602001909291908035151590602001909291905050506117cf565b005b610adc600480360360808110156109ef57600080fd5b81019080803573ffffffffffffffffffffffffffffffffffffffff169060200190929190803573ffffffffffffffffffffffffffffffffffffffff1690602001909291908035906020019092919080359060200190640100000000811115610a5657600080fd5b820183602082011115610a6857600080fd5b80359060200191846001830284011164010000000083111715610a8a57600080fd5b91908080601f016020809104026020016040519081016040528093929190818152602001838380828437600081840152601f19601f820116905080830192505050505050509192919290505050611909565b005b610b0a60048036036020811015610af457600080fd5b810190808035906020019092919050505061192f565b6040518080602001828103825283818151815260200191508051906020019080838360005b83811015610b4a578082015181840152602081019050610b2f565b50505050905090810190601f168015610b775780820380516001836020036101000a031916815260200191505b509250505060405180910390f35b610d0e6004803603610180811015610b9c57600080fd5b81019080803573ffffffffffffffffffffffffffffffffffffffff1690602001909291908035906020019092919080604001906002806020026040519081016040528092919082600260200280828437600081840152601f19601f82011690508083019250505050505091929192908060800190600280602002604051908101604052809291906000905b82821015610c7b578382604002016002806020026040519081016040528092919082600260200280828437600081840152601f19601f82011690508083019250505050505081526020019060010190610c27565b50505050919291929080604001906002806020026040519081016040528092919082600260200280828437600081840152601f19601f820116905080830192505050505050919291929080604001906002806020026040519081016040528092919082600260200280828437600081840152601f19601f82011690508083019250505050505091929192905050506119f6565b005b610d18611def565b604051808273ffffffffffffffffffffffffffffffffffffffff1673ffffffffffffffffffffffffffffffffffffffff16815260200191505060405180910390f35b610d62611e15565b6040518080602001828103825283818151815260200191508051906020019080838360005b83811015610da2578082015181840152602081019050610d87565b50505050905090810190601f168015610dcf5780820380516001836020036101000a031916815260200191505b509250505060405180910390f35b610e3f60048036036040811015610df357600080fd5b81019080803573ffffffffffffffffffffffffffffffffffffffff169060200190929190803573ffffffffffffffffffffffffffffffffffffffff169060200190929190505050611eb7565b604051808215151515815260200191505060405180910390f35b610e9b60048036036020811015610e6f57600080fd5b81019080803573ffffffffffffffffffffffffffffffffffffffff169060200190929190505050611f4b565b005b610ffc6004803603610140811015610eb457600080fd5b8101908080604001906002806020026040519081016040528092919082600260200280828437600081840152601f19601f82011690508083019250505050505091929192908060800190600280602002604051908101604052809291906000905b82821015610f69578382604002016002806020026040519081016040528092919082600260200280828437600081840152601f19601f82011690508083019250505050505081526020019060010190610f15565b50505050919291929080604001906002806020026040519081016040528092919082600260200280828437600081840152601f19601f820116905080830192505050505050919291929080604001906002806020026040519081016040528092919082600260200280828437600081840152601f19601f8201169050808301925050505050509192919290505050612107565b005b600060026000837bffffffffffffffffffffffffffffffffffffffffffffffffffffffff19167bffffffffffffffffffffffffffffffffffffffffffffffffffffffff1916815260200190815260200160002060009054906101000a900460ff169050919050565b606060108054600181600116156101000203166002900480601f0160208091040260200160405190810160405280929190818152602001828054600181600116156101000203166002900480156110fe5780601f106110d3576101008083540402835291602001916110fe565b820191906000526020600020905b8154815290600101906020018083116110e157829003601f168201915b5050505050905090565b60006004600083815260200190815260200160002060009054906101000a900473ffffffffffffffffffffffffffffffffffffffff169050919050565b600061115082611554565b90508073ffffffffffffffffffffffffffffffffffffffff168373ffffffffffffffffffffffffffffffffffffffff1614156111f4576040517f08c379a000000000000000000000000000000000000000000000000000000000815260040180806020018281038252601a8152602001807f417070726f76616c2063616e6e6f7420626520746f2073656c6600000000000081525060200191505060405180910390fd5b8073ffffffffffffffffffffffffffffffffffffffff163373ffffffffffffffffffffffffffffffffffffffff16148061123457506112338133611eb7565b5b61123d57600080fd5b826004600084815260200190815260200160002060006101000a81548173ffffffffffffffffffffffffffffffffffffffff021916908373ffffffffffffffffffffffffffffffffffffffff160217905550818373ffffffffffffffffffffffffffffffffffffffff168273ffffffffffffffffffffffffffffffffffffffff167f8c5be1e5ebec7d5bd14f71427d1e84f3dd0314c0f7b2291e5b200ac8c7c3b92560405160405180910390a4505050565b6000600980549050905090565b61130633826123b2565b61130f57600080fd5b61131a838383612447565b505050565b61135e828260006040519080825280601f01601f1916602001820160405280156113585781602001600182028038833980820191505090505b506113d5565b5050565b600061136d83611591565b821061137857600080fd5b600760008473ffffffffffffffffffffffffffffffffffffffff1673ffffffffffffffffffffffffffffffffffffffff16815260200190815260200160002082815481106113c257fe5b9060005260206000200154905092915050565b505050565b6000600160009054906101000a900473ffffffffffffffffffffffffffffffffffffffff1673ffffffffffffffffffffffffffffffffffffffff163373ffffffffffffffffffffffffffffffffffffffff161461149f576040517f08c379a000000000000000000000000000000000000000000000000000000000815260040180806020018281038252601d8152602001807f43616c6c6572206973206e6f7420636f6e7472616374206f776e65722100000081525060200191505060405180910390fd5b6114a9838361246b565b6114b28261248c565b6001905092915050565b6114d783838360405180602001604052806000815250611909565b505050565b60006114e66112ef565b82106114f157600080fd5b600982815481106114fe57fe5b90600052602060002001549050919050565b60176020528060005260406000206000915090508060000154908060010160009054906101000a900473ffffffffffffffffffffffffffffffffffffffff16905082565b60006003600083815260200190815260200160002060009054906101000a900473ffffffffffffffffffffffffffffffffffffffff169050919050565b60006115da600560008473ffffffffffffffffffffffffffffffffffffffff1673ffffffffffffffffffffffffffffffffffffffff168152602001908152602001600020612574565b9050919050565b600160009054906101000a900473ffffffffffffffffffffffffffffffffffffffff1673ffffffffffffffffffffffffffffffffffffffff163373ffffffffffffffffffffffffffffffffffffffff16146116a4576040517f08c379a000000000000000000000000000000000000000000000000000000000815260040180806020018281038252601d8152602001807f43616c6c6572206973206e6f7420636f6e7472616374206f776e65722100000081525060200191505060405180910390fd5b60018060146101000a81548160ff0219169083151502179055503373ffffffffffffffffffffffffffffffffffffffff167f62e78cea01bee320cd4e420270b5ea74000d11b0c9f74754ebdbfc544b05a25860405160405180910390a2565b6000600160009054906101000a900473ffffffffffffffffffffffffffffffffffffffff16905090565b606060118054600181600116156101000203166002900480601f0160208091040260200160405190810160405280929190818152602001828054600181600116156101000203166002900480156117c55780601f1061179a576101008083540402835291602001916117c5565b820191906000526020600020905b8154815290600101906020018083116117a857829003601f168201915b5050505050905090565b3373ffffffffffffffffffffffffffffffffffffffff168273ffffffffffffffffffffffffffffffffffffffff16141561180857600080fd5b80600660003373ffffffffffffffffffffffffffffffffffffffff1673ffffffffffffffffffffffffffffffffffffffff16815260200190815260200160002060008473ffffffffffffffffffffffffffffffffffffffff1673ffffffffffffffffffffffffffffffffffffffff16815260200190815260200160002060006101000a81548160ff0219169083151502179055508173ffffffffffffffffffffffffffffffffffffffff163373ffffffffffffffffffffffffffffffffffffffff167f17307eab39ab6107e8899845ad3d59bd9653f200f220920489ca2b5937696c3183604051808215151515815260200191505060405180910390a35050565b6119148484846112fc565b61192084848484612582565b61192957600080fd5b50505050565b606061193a8261276b565b61194357600080fd5b601360008381526020019081526020016000208054600181600116156101000203166002900480601f0160208091040260200160405190810160405280929190818152602001828054600181600116156101000203166002900480156119ea5780601f106119bf576101008083540402835291602001916119ea565b820191906000526020600020905b8154815290600101906020018083116119cd57829003601f168201915b50505050509050919050565b6000848484846040516020018085600260200280838360005b83811015611a2a578082015181840152602081019050611a0f565b505050509050018460026000925b81841015611a7e5782846020020151600260200280838360005b83811015611a6d578082015181840152602081019050611a52565b505050509050019260010192611a38565b9250505083600260200280838360005b83811015611aa9578082015181840152602081019050611a8e565b5050505090500182600260200280838360005b83811015611ad7578082015181840152602081019050611abc565b50505050905001945050505050604051602081830303815290604052805190602001209050600073ffffffffffffffffffffffffffffffffffffffff166017600083815260200190815260200160002060010160009054906101000a900473ffffffffffffffffffffffffffffffffffffffff1673ffffffffffffffffffffffffffffffffffffffff1614611bd4576040517f08c379a00000000000000000000000000000000000000000000000000000000081526004018080602001828103825260188152602001807f536f6c7574696f6e20616c72656164792065786973747321000000000000000081525060200191505060405180910390fd5b601460009054906101000a900473ffffffffffffffffffffffffffffffffffffffff1673ffffffffffffffffffffffffffffffffffffffff1663621e9ec0868686866040518563ffffffff1660e01b81526004018085600260200280838360005b83811015611c50578082015181840152602081019050611c35565b505050509050018460026000925b81841015611ca45782846020020151600260200280838360005b83811015611c93578082015181840152602081019050611c78565b505050509050019260010192611c5e565b9250505083600260200280838360005b83811015611ccf578082015181840152602081019050611cb4565b5050505090500182600260200280838360005b83811015611cfd578082015181840152602081019050611ce2565b5050505090500194505050505060206040518083038186803b158015611d2257600080fd5b505afa158015611d36573d6000803e3d6000fd5b505050506040513d6020811015611d4c57600080fd5b8101908080519060200190929190505050611dcf576040517f08c379a00000000000000000000000000000000000000000000000000000000081526004018080602001828103825260158152602001807f536f6c7574696f6e206e6f7420636f727265637421000000000000000000000081525060200191505060405180910390fd5b611ddb85858585612107565b611de587876113da565b5050505050505050565b601460009054906101000a900473ffffffffffffffffffffffffffffffffffffffff1681565b606060128054600181600116156101000203166002900480601f016020809104026020016040519081016040528092919081815260200182805460018160011615610100020316600290048015611ead5780601f10611e8257610100808354040283529160200191611ead565b820191906000526020600020905b815481529060010190602001808311611e9057829003601f168201915b5050505050905090565b6000600660008473ffffffffffffffffffffffffffffffffffffffff1673ffffffffffffffffffffffffffffffffffffffff16815260200190815260200160002060008373ffffffffffffffffffffffffffffffffffffffff1673ffffffffffffffffffffffffffffffffffffffff16815260200190815260200160002060009054906101000a900460ff16905092915050565b600160009054906101000a900473ffffffffffffffffffffffffffffffffffffffff1673ffffffffffffffffffffffffffffffffffffffff163373ffffffffffffffffffffffffffffffffffffffff161461200e576040517f08c379a000000000000000000000000000000000000000000000000000000000815260040180806020018281038252601d8152602001807f43616c6c6572206973206e6f7420636f6e7472616374206f776e65722100000081525060200191505060405180910390fd5b600073ffffffffffffffffffffffffffffffffffffffff168173ffffffffffffffffffffffffffffffffffffffff16141561204857600080fd5b806000806101000a81548173ffffffffffffffffffffffffffffffffffffffff021916908373ffffffffffffffffffffffffffffffffffffffff1602179055508073ffffffffffffffffffffffffffffffffffffffff16600160009054906101000a900473ffffffffffffffffffffffffffffffffffffffff1673ffffffffffffffffffffffffffffffffffffffff167f8be0079c531659141344cd1fd0a4f28419497f9722a3daafe3b4186f6b6457e060405160405180910390a350565b6000848484846040516020018085600260200280838360005b8381101561213b578082015181840152602081019050612120565b505050509050018460026000925b8184101561218f5782846020020151600260200280838360005b8381101561217e578082015181840152602081019050612163565b505050509050019260010192612149565b9250505083600260200280838360005b838110156121ba57808201518184015260208101905061219f565b5050505090500182600260200280838360005b838110156121e85780820151818401526020810190506121cd565b505050509050019450505050506040516020818303038152906040528051906020012090506000601760008381526020019081526020016000206000015414612299576040517f08c379a00000000000000000000000000000000000000000000000000000000081526004018080602001828103825260178152602001807f536f6c7574696f6e20616c72656164792065787369747300000000000000000081525060200191505060405180910390fd5b604051806040016040528060165481526020013373ffffffffffffffffffffffffffffffffffffffff16815250601760008381526020019081526020016000206000820151816000015560208201518160010160006101000a81548173ffffffffffffffffffffffffffffffffffffffff021916908373ffffffffffffffffffffffffffffffffffffffff16021790555090505060016016600082825401925050819055507f3a01cc868bdb36c1d9b8a262a8ad25064b23ac175b3f8e4453f1daf8ff6bac0d33601654604051808373ffffffffffffffffffffffffffffffffffffffff1673ffffffffffffffffffffffffffffffffffffffff1681526020018281526020019250505060405180910390a15050505050565b6000806123be83611554565b90508073ffffffffffffffffffffffffffffffffffffffff168473ffffffffffffffffffffffffffffffffffffffff16148061242d57508373ffffffffffffffffffffffffffffffffffffffff1661241584611108565b73ffffffffffffffffffffffffffffffffffffffff16145b8061243e575061243d8185611eb7565b5b91505092915050565b6124528383836127dd565b61245c8382612a5b565b6124668282612bf9565b505050565b6124758282612cc0565b61247f8282612bf9565b61248881612ed8565b5050565b6124958161276b565b61249e57600080fd5b61254a60128054600181600116156101000203166002900480601f0160208091040260200160405190810160405280929190818152602001828054600181600116156101000203166002900480156125375780601f1061250c57610100808354040283529160200191612537565b820191906000526020600020905b81548152906001019060200180831161251a57829003601f168201915b505050505061254583612f24565b613051565b601360008381526020019081526020016000209080519060200190612570929190613481565b5050565b600081600001549050919050565b60006125a38473ffffffffffffffffffffffffffffffffffffffff16613095565b6125b05760019050612763565b60008473ffffffffffffffffffffffffffffffffffffffff1663150b7a02338887876040518563ffffffff1660e01b8152600401808573ffffffffffffffffffffffffffffffffffffffff1673ffffffffffffffffffffffffffffffffffffffff1681526020018473ffffffffffffffffffffffffffffffffffffffff1673ffffffffffffffffffffffffffffffffffffffff16815260200183815260200180602001828103825283818151815260200191508051906020019080838360005b8381101561268b578082015181840152602081019050612670565b50505050905090810190601f1680156126b85780820380516001836020036101000a031916815260200191505b5095505050505050602060405180830381600087803b1580156126da57600080fd5b505af11580156126ee573d6000803e3d6000fd5b505050506040513d602081101561270457600080fd5b8101908080519060200190929190505050905063150b7a0260e01b7bffffffffffffffffffffffffffffffffffffffffffffffffffffffff1916817bffffffffffffffffffffffffffffffffffffffffffffffffffffffff1916149150505b949350505050565b6000806003600084815260200190815260200160002060009054906101000a900473ffffffffffffffffffffffffffffffffffffffff169050600073ffffffffffffffffffffffffffffffffffffffff168173ffffffffffffffffffffffffffffffffffffffff161415915050919050565b60006127e882611554565b90508073ffffffffffffffffffffffffffffffffffffffff168473ffffffffffffffffffffffffffffffffffffffff161461286e576040517f08c379a000000000000000000000000000000000000000000000000000000000815260040180806020018281038252602b815260200180613553602b913960400191505060405180910390fd5b600073ffffffffffffffffffffffffffffffffffffffff168373ffffffffffffffffffffffffffffffffffffffff161415612911576040517f08c379a00000000000000000000000000000000000000000000000000000000081526004018080602001828103825260148152602001807f4e6f7420612076616c696420416464726573732100000000000000000000000081525060200191505060405180910390fd5b61291a826130a8565b826003600084815260200190815260200160002060006101000a81548173ffffffffffffffffffffffffffffffffffffffff021916908373ffffffffffffffffffffffffffffffffffffffff1602179055506129b3600560008573ffffffffffffffffffffffffffffffffffffffff1673ffffffffffffffffffffffffffffffffffffffff168152602001908152602001600020613166565b6129fa600560008673ffffffffffffffffffffffffffffffffffffffff1673ffffffffffffffffffffffffffffffffffffffff16815260200190815260200160002061317c565b818373ffffffffffffffffffffffffffffffffffffffff168573ffffffffffffffffffffffffffffffffffffffff167fddf252ad1be2c89b69c2b068fc378daa952ba7f163c4a11628f55a4df523b3ef60405160405180910390a450505050565b6000612ab36001600760008673ffffffffffffffffffffffffffffffffffffffff1673ffffffffffffffffffffffffffffffffffffffff1681526020019081526020016000208054905061319f90919063ffffffff16565b9050600060086000848152602001908152602001600020549050818114612ba0576000600760008673ffffffffffffffffffffffffffffffffffffffff1673ffffffffffffffffffffffffffffffffffffffff1681526020019081526020016000208381548110612b2057fe5b9060005260206000200154905080600760008773ffffffffffffffffffffffffffffffffffffffff1673ffffffffffffffffffffffffffffffffffffffff1681526020019081526020016000208381548110612b7857fe5b9060005260206000200181905550816008600083815260200190815260200160002081905550505b600760008573ffffffffffffffffffffffffffffffffffffffff1673ffffffffffffffffffffffffffffffffffffffff168152602001908152602001600020805480919060019003612bf29190613501565b5050505050565b600760008373ffffffffffffffffffffffffffffffffffffffff1673ffffffffffffffffffffffffffffffffffffffff168152602001908152602001600020805490506008600083815260200190815260200160002081905550600760008373ffffffffffffffffffffffffffffffffffffffff1673ffffffffffffffffffffffffffffffffffffffff1681526020019081526020016000208190806001815401808255809150509060018203906000526020600020016000909192909190915055505050565b612cc98161276b565b15612d3c576040517f08c379a000000000000000000000000000000000000000000000000000000000815260040180806020018281038252600d8152602001807f546f6b656e20457869737473210000000000000000000000000000000000000081525060200191505060405180910390fd5b600073ffffffffffffffffffffffffffffffffffffffff168273ffffffffffffffffffffffffffffffffffffffff161415612ddf576040517f08c379a00000000000000000000000000000000000000000000000000000000081526004018080602001828103825260148152602001807f4e6f7420612076616c696420416464726573732100000000000000000000000081525060200191505060405180910390fd5b816003600083815260200190815260200160002060006101000a81548173ffffffffffffffffffffffffffffffffffffffff021916908373ffffffffffffffffffffffffffffffffffffffff160217905550612e78600560008473ffffffffffffffffffffffffffffffffffffffff1673ffffffffffffffffffffffffffffffffffffffff168152602001908152602001600020613166565b808273ffffffffffffffffffffffffffffffffffffffff16600073ffffffffffffffffffffffffffffffffffffffff167fddf252ad1be2c89b69c2b068fc378daa952ba7f163c4a11628f55a4df523b3ef60405160405180910390a45050565b600980549050600a600083815260200190815260200160002081905550600981908060018154018082558091505090600182039060005260206000200160009091929091909150555050565b60606000821415612f6c576040518060400160405280600181526020017f3000000000000000000000000000000000000000000000000000000000000000815250905061304c565b600082905060005b60008214612f96578080600101915050600a8281612f8e57fe5b049150612f74565b6060816040519080825280601f01601f191660200182016040528015612fcb5781602001600182028038833980820191505090505b50905060006001830390505b6000861461304457600a8681612fe957fe5b0660300160f81b8282806001900393508151811061300357fe5b60200101907effffffffffffffffffffffffffffffffffffffffffffffffffffffffffffff1916908160001a905350600a868161303c57fe5b049550612fd7565b819450505050505b919050565b606061308d83836040518060200160405280600081525060405180602001604052806000815250604051806020016040528060008152506131bf565b905092915050565b600080823b905060008111915050919050565b600073ffffffffffffffffffffffffffffffffffffffff166004600083815260200190815260200160002060009054906101000a900473ffffffffffffffffffffffffffffffffffffffff1673ffffffffffffffffffffffffffffffffffffffff16146131635760006004600083815260200190815260200160002060006101000a81548173ffffffffffffffffffffffffffffffffffffffff021916908373ffffffffffffffffffffffffffffffffffffffff1602179055505b50565b6001816000016000828254019250508190555050565b6131946001826000015461319f90919063ffffffff16565b816000018190555050565b6000828211156131ae57600080fd5b600082840390508091505092915050565b6060808690506060869050606086905060608690506060869050606081518351855187518951010101016040519080825280601f01601f19166020018201604052801561321b5781602001600182028038833980820191505090505b509050606081905060008090506000809050600090505b88518110156132a05788818151811061324757fe5b602001015160f81c60f81b83838060010194508151811061326457fe5b60200101907effffffffffffffffffffffffffffffffffffffffffffffffffffffffffffff1916908160001a9053508080600101915050613232565b600090505b8751811015613313578781815181106132ba57fe5b602001015160f81c60f81b8383806001019450815181106132d757fe5b60200101907effffffffffffffffffffffffffffffffffffffffffffffffffffffffffffff1916908160001a90535080806001019150506132a5565b600090505b86518110156133865786818151811061332d57fe5b602001015160f81c60f81b83838060010194508151811061334a57fe5b60200101907effffffffffffffffffffffffffffffffffffffffffffffffffffffffffffff1916908160001a9053508080600101915050613318565b600090505b85518110156133f9578581815181106133a057fe5b602001015160f81c60f81b8383806001019450815181106133bd57fe5b60200101907effffffffffffffffffffffffffffffffffffffffffffffffffffffffffffff1916908160001a905350808060010191505061338b565b600090505b845181101561346c5784818151811061341357fe5b602001015160f81c60f81b83838060010194508151811061343057fe5b60200101907effffffffffffffffffffffffffffffffffffffffffffffffffffffffffffff1916908160001a90535080806001019150506133fe565b82995050505050505050505095945050505050565b828054600181600116156101000203166002900490600052602060002090601f016020900481019282601f106134c257805160ff19168380011785556134f0565b828001600101855582156134f0579182015b828111156134ef5782518255916020019190600101906134d4565b5b5090506134fd919061352d565b5090565b81548183558181111561352857818360005260206000209182019101613527919061352d565b5b505050565b61354f91905b8082111561354b576000816000905550600101613533565b5090565b9056fe43616e6e6f74207472616e7366657220696620796f7520617265206e6f7420746f6b656e206f776e657221a265627a7a72315820856210509390e54eddf21bd93e5df597c1cf8b44a7e797d1a3805bc150c5783a64736f6c6343000510003268747470733a2f2f73332d75732d776573742d322e616d617a6f6e6177732e636f6d2f756461636974792d626c6f636b636861696e2f63617073746f6e652f",
  "source": "pragma solidity >=0.5.0;\nimport \"./ERC721Mintable.sol\";\nimport \"./Verifier.sol\";\n// TODO define a contract call to the zokrates generated solidity contract <Verifier> or <renamedVerifier>\ncontract SquareVerifier is Verifier {\n\n}\n// TODO define another contract named SolnSquareVerifier that inherits from your ERC721Mintable class\ncontract SolnSquareVerifier is CustomERC721Token {\n  SquareVerifier public verifierContract;\n  address private verifierAddress;\n  constructor() CustomERC721Token() public{\n    verifierAddress = msg.sender;\n    verifierContract = SquareVerifier(verifierAddress);\n  }\n\n  // TODO define a solutions struct that can hold an index & an address\n  struct Solution {\n    uint256 index;\n    address to;\n  }\n\n  // TODO define an array of the above struct\n  uint256 solCount = 0;\n\n  // TODO define a mapping to store unique solutions submitted\n  mapping(bytes32 => Solution) public uniqueSolutions;\n\n  // TODO Create an event to emit when a solution is added\n  event SolutionAdded(address to, uint256 index);\n\n  // TODO Create a function to add the solutions to the array and emit the event\n  function addSolution(uint[2] memory a, uint[2][2] memory b, uint[2] memory c, uint[2] memory input) public {\n        bytes32 key = keccak256(abi.encodePacked(a, b, c, input));\n        require(uniqueSolutions[key].index == 0, \"Solution already exsits\");\n        uniqueSolutions[key] = Solution({index: solCount, to: msg.sender});\n        solCount += 1;\n        emit SolutionAdded(msg.sender, solCount);\n    }\n\n  // TODO Create a function to mint new NFT only after the solution has been verified\n  //  - make sure the solution is unique (has not been used before)\n  //  - make sure you handle metadata as well as tokenSupply\n  function mintToken(address _to, uint256 _index, uint[2] memory a, uint[2][2] memory b, uint[2] memory c, uint[2] memory input) public {\n    bytes32 key = keccak256(abi.encodePacked(a, b, c, input));\n    require(uniqueSolutions[key].to == address(0), \"Solution already exists!\");\n    require(verifierContract.verifyTx(a, b, c, input), \"Solution not correct!\");\n    addSolution(a, b, c, input);\n    mint(_to, _index);\n  }\n\n\n\n}",
  "sourcePath": "C:/Users/Mai Jizi/Desktop/000_final_project_blockchain/Blockchain-Capstone-master/eth-contracts/contracts/SolnSquareVerifier.sol",
  "compiler": {
    "name": "solc",
    "version": "0.5.16+commit.9c3226ce.Emscripten.clang"
  },
  "schemaVersion": "3.2.5",
  "updatedAt": "2020-10-13T20:49:27.766Z",
  "networkType": "ethereum",
  "devdoc": {
    "methods": {
      "isApprovedForAll(address,address)": {
        "details": "Tells whether an operator is approved by a given owner",
        "params": {
          "operator": "operator address which you want to query the approval of",
          "owner": "owner address which you want to query the approval of"
        },
        "return": "bool whether the given operator is approved by the given owner"
      },
      "setApprovalForAll(address,bool)": {
        "details": "Sets or unsets the approval of a given operator An operator is allowed to transfer all tokens of the sender on their behalf",
        "params": {
          "approved": "representing the status of the approval to be set",
          "to": "operator address to set the approval"
        }
      },
      "supportsInterface(bytes4)": {
        "details": "implement supportsInterface(bytes4) using a lookup table"
      },
      "tokenByIndex(uint256)": {
        "details": "Gets the token ID at a given index of all the tokens in this contract Reverts if the index is greater or equal to the total number of tokens",
        "params": {
          "index": "uint256 representing the index to be accessed of the tokens list"
        },
        "return": "uint256 token ID at the given index of the tokens list"
      },
      "tokenOfOwnerByIndex(address,uint256)": {
        "details": "Gets the token ID at a given index of the tokens list of the requested owner",
        "params": {
          "index": "uint256 representing the index to be accessed of the requested tokens list",
          "owner": "address owning the tokens list to be accessed"
        },
        "return": "uint256 token ID at the given index of the tokens list owned by the requested address"
      },
      "totalSupply()": {
        "details": "Gets the total amount of tokens stored by the contract",
        "return": "uint256 representing the total amount of tokens"
      }
    }
  },
  "userdoc": {
    "methods": {}
  }
}